UN    UNIDADE                                                                                                                                                                                                                                                                                                                                                                                                                                                                                                1000001
PC    PECA                                                                                                                                                                                                                                                                                                                                                                                                                                                                                                   1000002
O     UNIDADE O                                                                                                                                                                                                                                                                                                                                                                                                                                                                                              1000003
0000000470ARMACOES PARA OCULOS DUBAI CLIPON       90031990PC  000000000               01            000000000000      0000000000                               00000000000000000000000000000000                    00000000000000                                                                      2805700                                                                                                                                                                                               2000004
0000000916VS AR FILTRO AZUL 167                   90015000PC  000000000               01            000000000000      0000000000                               00000000000000000000000000000000                    00000000000000                                                                                                                                                                                                                                                                            2000005
0000000982HILUX LONGLIFE BLUECONTROL              90015000PC  000000000               01            000000000000      0000000000                               00000000000000000000000000000000                    00000000000000                                                                                                                                                                                                                                                                            2000006
0000000988MAXXEE FOTO UV+HMC BLUE                 90015000PC  000000000               01            000000000000      0000000000                               00000000000000000000000000000000                    00000000000000                                                                                                                                                                                                                                                                            2000007
0000000021LENTE PG AR                             90015000UN  000000000               01            000000000000      0000000000                               00000000000000000000000000000000                    00000000000000                                                                                                                                                                                                                                                                            2000008
0000000488VS AR FILTRO AZUL FOTOCROMATICA         90015000PC  000000000               01            000000000000      0000000000                               00000000000000000000000000000000                    00000000000000                                                                                                                                                                                                                                                                            2000009
0000000986GUESS GU 7059 WHT34                     90041000PC  000000000               01            000000000000      0000000000                               00000000000000000000000000000000                    00000000000000                                                                                                                                                                                                                                                                            2000010
0000000288LENTE PG FOTO AR                        90015000UN  000000000               01            000000000000      0000000000                               00000000000000000000000000000000                    00000000000000                                                                                                                                                                                                                                                                            2000011
0000000334LENTE VS AR FILTRO AZUL                 90015000UN  000000000               01            000000000000      0000000000                               00000000000000000000000000000000                    00000000000000                                                                                                                                                                                                                                                                            2000012
0000000019LENTE PG                                90015000UN  000000000               01            000000000000      0000000000                               00000000000000000000000000000000                    00000000000000                                                                      2805700                                                                                                                                                                                               2000013
0000000989VARILUX COMFORT MAX TRIO EASY CLEAN TRAN90015000PC  000000000               01            000000000000      0000000000                               00000000000000000000000000000000                    00000000000000                                                                                                                                                                                                                                                                            2000014
0000000732HOYALUX DAYNAMIC HARD ORGANIC           90015000PC  000000000               01            000000000000      0000000000                               00000000000000000000000000000000                    00000000000000                                                                                                                                                                                                                                                                            2000015
0000000371RAY BAN SOLAR RB4171L 6012P             90041000PC  000000000               01            000000000000      0000000000                               00000000000000000000000000000000                    00000000000000                                                                                                                                                                                                                                                                            2000016
0000000471ARMACOES PARA OCULOS RECEITUARIO DUBAI  90031990PC  000000000               01            000000000000      0000000000                               00000000000000000000000000000000                    00000000000000                                                                                                                                                                                                                                                                            2000017
0000000071LENTE BIFOCAL                           90015000UN  000000000               01            000000000000      0000000000                               00000000000000000000000000000000                    00000000000000                                                                                                                                                                                                                                                                            2000018
0000000987POLO RALPH LAUREN PH 1171 9038 55       90031910PC  000000000               01            000000000000      0000000000                               00000000000000000000000000000000                    00000000000000                                                                                                                                                                                                                                                                            2000019
0000000515OCULOS RECEITUARIO PAPARAZZI ARMACOES   90031910PC  000000000               01            000000000000      0000000000                               00000000000000000000000000000000                    00000000000000                                                                                                                                                                                                                                                                            2000020
0000000074LENTE DE CONTACTO                       90013000UN  000000000               01            000000000000      0000000000                               00000000000000000000000000000000                    00000000000000                                                                      2805800                                                                                                                                                                                               2000021
0000000037LENTE VS AR                             90015000UN  000000000               01            000000000000      0000000000                               00000000000000000000000000000000                    00000000000000                                                                                                                                                                                                                                                                            2000022
0000000515               O     0000000001000000                                                                                                                                                                                                                                                                                                                                                                                                                                                              3000023
0000000515               UN    0000000001000000                                                                                                                                                                                                                                                                                                                                                                                                                                                              3000024
