10019979290001089013681047    FORSTER & FORSTER LTDA             GUAIRA                        PR44364220062026020120260228331
11AV MATE LARANJEIRA                00424                      CENTRO         85980000JUNIOR                      004436422006
61                            20260207651    00438300438400000002500000000000000000000000000000000000000000000000000000000000 
61                            20260209651    00438500438700000004320000000000000000000000000000000000000000000000000000000000 
61                            20260210651    00438800438800000000890000000000000000000000000000000000000000000000000000000000 
61                            20260212651    00438900439100000002450000000000000000000000000000000000000000000000000000000000 
61                            20260214651    00439200439400000002080000000000000000000000000000000000000000000000000000000000 
61                            20260219651    00439500439500000003400000000000000000000000000000000000000000000000000000000000 
61                            20260220651    00439600439600000001330000000000000000000000000000000000000000000000000000000000 
61                            20260221651    00439700439700000000940000000000000000000000000000000000000000000000000000000000 
61                            20260228651    00439800440000000002000000000000000000000000000000000000000000000000000000000000 
90019979290001089013681047    61000000099900000012                                                                           1
